:100000000C9456000C9457090C9480090C94A9097F
:100010000C9473000C94030C0C9473000C947300F8
:100020000C9473000C9473000C9473000C94730084
:100030000C9473000C9473000C9473000C94730074
:100040000C9473000C9473000C9473000C94730064
:100050000C947300F609000A0A0A140A1E0A280AF8
:10006000320AA60BB10BC70BBC0BD20BDD0BE80B96
:100070004E414E494E495459494E46CDCCCC3D0A8D
:10008000D7233C17B7D13877CC2B329595E6241F70
:10009000B14F0A000020410000C84200401C462029
:1000A000BCBE4CCA1B0E5AAEC59D740011241FBEA7
:1000B000CFE5D8E0DEBFCDBF13E0A0E6B0E0EAE9CF
:1000C000F1E202C005900D92AE32B107D9F723E0FC
:1000D000AEE2B3E001C01D92A637B207E1F70E947D
:1000E000D2060C94CB100C94000083E080936C003B
:1000F000089583E00E94D20962E08AE10E94D70657
:1001000080E00E94C20861E080E00E94E60865E7A6
:1001100070E080E00E9442090E9444040E94ED05C4
:100120000E94350480E00E94480A61E08AE00E9453
:10013000D70660E08BE00E94D7060E94F50B089579
:1001400088E292E00E943D0660E070E08AE794E475
:100150000E94430B82E080936C00089560E081E090
:100160000E94A60689E392E00E943D0608951F932F
:10017000CF93DF930E94A20610E0C12FD0E0CE0102
:10018000825D9C4F0E943D0A8823B9F360E081E0C4
:100190000E94A6068AE492E00E943D06FE01E25D0E
:1001A000FC4F8081811103C0108220E00DC01F5FD1
:1001B000E4CF822F90E0FC01E25DFC4F3081FC0136
:1001C000ED5BFC4F30832F5F203198F320E00BC0B4
:1001D000822F90E0FC01E25CFC4F3081FC01EC5A84
:1001E000FC4F30832F5F253098F30E94A20684E0F5
:1001F00080936C00DF91CF911F910895CF936FE6AC
:1002000073E08AE00E9476080E94A20661E081E025
:100210000E94A60686E592E00E943D0660E070E03E
:1002200088E493E40E94430B10925A036FE673E054
:100230008AE00E9476080E945D04C82F90915A03BC
:10024000953048F085E080936C0081E080935903FD
:1002500010925A034CC080916E03813049F482E0C1
:100260008093590385E080936C0010925A033FC03D
:10027000823029F5943090F022C06FE673E08AE076
:100280000E94760860915A03E62FF0E0E55AFC4F91
:1002900080E380836C5F82E00E94A60680916F03FA
:1002A000813021F480916E03823039F385E692E04B
:1002B0000E943D0680915A038F5F80935A03CC239E
:1002C00009F4B4CF60915A03E62FF0E0E55AFC4FF1
:1002D000C0836C5F82E00E94A60685E692E00E94E1
:1002E0003D0680915A038F5F80935A039FCFCF9131
:1002F00008951AC0822F90E0FC01E55AFC4F30812E
:10030000FC01EC5AFC4F8081381719F081E0809392
:1003100059032F5F01C020E0243060F3809159031E
:10032000813011F01092590380915903823099F372
:10033000813009F04DC080916D00833060F584E01C
:1003400080936C0010925A030E94A20663E081E041
:100350000E94A60687E692E00E943D0667E082E0E2
:100360000E94A60682E792E00E943D0660916D0021
:1003700070E080E090E00E94500680916D008F5FF9
:1003800080936D0060E070E08AEF94E40E94430B7C
:100390000E94A2061DC060E080E690E00E94B706C1
:1003A0000E943A040E94A20663E081E00E94A60631
:1003B0008BE792E00E943D0680E00E94B40680E058
:1003C0000E94D40860E070E583E498E40E94430B47
:1003D0008091590381110AC086E080936C0081E00E
:1003E00080936D0010925A030E94A20608951F93F5
:1003F000CF93DF930E94A20660E081E00E94A606F0
:1004000085E892E00E943D0660E082E00E94A60638
:1004100082E992E00E943D06D0E0C0E052C00E9416
:100420005D04182F6FE673E08AE00E9476080CC026
:100430006FE673E08AE00E947608ED2FF0E0EC5A58
:10044000FC4F80E38083C1E080916E03823021F411
:1004500080916F03813061F3112389F1ED2FF0E07A
:10046000EC5AFC4F1083C1E02AC080916E038130AA
:1004700059F4ED2FF0E0EC5AFC4F108287E08093A6
:100480006C00D5E0C0E01BC08230C9F06FE673E0BD
:100490008AE00E947608C0E00EC06C2F6D1B6D5F75
:1004A00082E00E94A606EC2FF0E0EC5AFC4F80811F
:1004B0000E94B406CF5FDC1780F7DF5FC0E0C13079
:1004C000A1F2D53008F4ABCFDF91CF911F91089501
:1004D0000F931F93CF93DF9300D000D0CDB7DEB73B
:1004E00060E080E690E00E94B70684E593E00E9419
:1004F000040F69837A838B839C830E94A20684E520
:1005000093E00E943D0660E082E00E94A6060E9401
:10051000A20683E493E00E94D503811180C00E946B
:10052000060481115BC069817A818B819C81209155
:1005300068003091690040916A0050916B000E9400
:10054000D10C18164CF1CE0101960E941504882397
:1005500009F486C063E081E00E94A6068AE992E081
:100560000E943D0665E082E00E94A60688EA92E0CD
:100570000E943D066FE082E00E94A60680E00E9495
:10058000B40660E070E08AE794E40E94430B86E0E2
:1005900080936C0080E065C064E081E00E94A60664
:1005A00081EB92E00E943D0661E082E00E94A60697
:1005B0008BEB92E00E943D066FE082E00E94A6066F
:1005C00080E00E94B40660E070E08AE794E40E9454
:1005D000430B86E080936C0080E043C00E943A04A5
:1005E00064E081E00E94A60689EC92E00E943D064C
:1005F00061E082E00E94A60681ED92E00E943D0645
:100600006FE082E00E94A60680E00E94B40660E0EF
:1006100074E284EF98E40E94430B80E022C00E94C1
:100620003A0464E081E00E94A60689EC92E00E9410
:100630003D0661E082E00E94A60682EE92E00E9402
:100640003D066FE082E00E94A60680E00E94B406AC
:1006500060E070E08AE794E40E94430B80E001C010
:1006600081E0882309F473C00E943F0400916E006A
:1006700010916F0029813A814B815C81F801608182
:100680007181828193810E944D0CF8016083718396
:10069000828393830E94A20664E081E00E94A60602
:1006A00082EF92E00E943D0663E082E00E94A6068F
:1006B0008CEF92E00E943D0660E070E08AE794E4EF
:1006C0000E94430B0E94A20664E081E00E94A606FD
:1006D00089E093E00E943D0660E082E00E94A60669
:1006E00083E193E00E943D06E0916E00F0916F007F
:1006F00060817181828193810E94480D0E94500621
:1007000086E992E00E943D0660E070E08AE794E4AA
:100710000E94430B0E94A20664E081E00E94A606AC
:100720008DE193E00E943D0666E082E00E94A6060D
:1007300087E293E00E943D0660E070E08AE794E47F
:100740000E94430B0E94A20681E080936C000F90F0
:100750000F900F900F90DF91CF911F910F910895FF
:1007600080916C00813019F40E94A00008958230BD
:1007700019F40E94AE000895833019F40E94B70066
:100780000895843019F40E94FE000895853019F40C
:100790000E9479010895863019F40E94F7010895A6
:1007A000873011F40E9468020895DC0180E020E0A7
:1007B00021C0292F30E0FD01E20FF31F608140913D
:1007C0006E0050916F00FA01E20FF31F2581621352
:1007D00003C09F5F21E009C04A5E5F4F50936F00E6
:1007E00040936E0020E003C090E0903110F321119F
:1007F00003C08F5F8A30C0F3211106C010926F00D2
:1008000010926E0083E0089580E008958091720355
:10081000811108C0E0916E00F0916F0094819130D9
:1008200019F401C0089585E00895CF9320917203D3
:10083000211116C0C0917003C11112C0DC01E091FA
:100840006E00F0916F0060817181828193812D91A2
:100850003D914D915C910E94D10C882314F002C00F
:1008600002C0C4E08C2FCF91089560E08BE00E941D
:10087000D706089561E08BE00E94D907089560E0F3
:100880008BE00E94D9070895CF93C2E109C060E0D0
:100890008C2F0E94D70661E08C2F0E94D907CF5F72
:1008A000C531A8F3C5E105C062E08C2F0E94D706D0
:1008B000CF5FC831C8F3CF910895FF920F931F9374
:1008C000CF93DF931F92CDB7DEB781E0898302E13A
:1008D000B1C060E0802F0E94D90787E893E10197BB
:1008E000F1F700C0000015E19DC0BE016F5F7F4FB2
:1008F000812F0E94760891C0BE016F5F7F4F812FCC
:100900000E947608033129F118F4023139F070C0E1
:100910000431D1F1053109F451C06AC0163151F0EA
:1009200020F4153109F466C078C0173141F0183150
:1009300059F073C00F2EF8E3FF2EF02D6EC00F2E6E
:10094000F9E3FF2EF02D69C00F2EFFE2FF2EF02DF0
:1009500064C0163151F020F4153109F450C05DC067
:10096000173141F0183159F058C00F2EF5E3FF2E22
:10097000F02D53C00F2EF6E3FF2EF02D4EC00F2E9C
:10098000FAE2FF2EF02D49C0163149F018F4153166
:10099000D9F143C0173141F0183159F03EC00F2E44
:1009A000F2E3FF2EF02D39C00F2EF3E3FF2EF02DD2
:1009B00034C00F2EFDE2FF2EF02D2FC0163149F06E
:1009C00018F4153131F129C0173141F0183159F0BF
:1009D00024C00F2EF0E3FF2EF02D1FC00F2EFDE3DD
:1009E000FF2EF02D1AC00F2EFBE2FF2EF02D15C0AA
:1009F000F12C13C00F2EF7E3FF2EF02D0EC00F2E9B
:100A0000F4E3FF2EF02D09C00F2EF1E3FF2EF02DA1
:100A100004C00F2EF1E4FF2EF02D8981882309F404
:100A20006BCF1F5F183108F460CF61E0802F0E9408
:100A3000D9070F5F053108F44CCF8F2D0F90DF9150
:100A4000CF911F910F91FF900895CF93C82F60E031
:100A500081E00E94D90760E082E00E94D907C4FBD0
:100A6000662760F984E00E94D907C5FB662760F914
:100A700085E00E94D907C6FB662760F986E00E94E0
:100A8000D9076C2F661F6627661F87E00E94D9076B
:100A900061E083E00E94D90789EF90E00197F1F7C8
:100AA00000C0000060E083E00E94D90789EF90E079
:100AB0000197F1F700C000006C2F617084E00E9484
:100AC000D907C1FB662760F985E00E94D907C2FB00
:100AD000662760F986E00E94D907C3FB662760F9A4
:100AE00087E00E94D90761E083E00E94D90789EF7F
:100AF00090E00197F1F700C0000060E083E00E9401
:100B0000D90789EF90E00197F1F700C00000CF917D
:100B10000895CF93C82F61E081E00E94D90760E07B
:100B200082E00E94D907C4FB662760F984E00E9436
:100B3000D907C5FB662760F985E00E94D907C6FB87
:100B4000662760F986E00E94D9076C2F661F66272A
:100B5000661F87E00E94D90761E083E00E94D90701
:100B600089EF90E00197F1F700C0000060E083E0BA
:100B70000E94D90789EF90E00197F1F700C00000CB
:100B80006C2F617084E00E94D907C1FB662760F971
:100B900085E00E94D907C2FB662760F986E00E94C3
:100BA000D907C3FB662760F987E00E94D90761E097
:100BB00083E00E94D90789EF90E00197F1F700C028
:100BC000000060E083E00E94D90789EF90E0019780
:100BD000F1F700C00000CF91089560E081E00E942D
:100BE000D70660E082E00E94D70660E083E00E94C2
:100BF000D70660E084E00E94D70660E085E00E94AE
:100C0000D70660E086E00E94D70660E087E00E9499
:100C1000D70683ED90E30197F1F700C0000082E072
:100C20000E94250589EF90E00197F1F700C00000D0
:100C300088E20E94250589EF90E00197F1F700C056
:100C400000008CE00E94250589EF90E00197F1F704
:100C500000C0000081E00E94250583EF91E001972C
:100C6000F1F700C0000086E00E94250589EF90E0C2
:100C70000197F1F700C0000008950F931F93CF93E1
:100C80008C01C0E003C00E948905CF5FF801EC0F22
:100C9000F11D80818111F7CFCF911F910F910895A0
:100CA000CF92DF92EF92FF921F93CF93DF93CDB756
:100CB000DEB760970FB6F894DEBF0FBECDBF6B01F5
:100CC0007C01672B682B692B19F480E30E9489054E
:100CD00010E015C0C701B6012AE030E040E050E066
:100CE0000E94DC0EE1E0F0E0EC0FFD1FE10FF11DD2
:100CF000605D60831F5FC22ED32EE42EF52EC114DB
:100D0000D104E104F10431F70DC0E12FF0E0319797
:100D100081E090E08C0F9D1FE80FF91F80810E94F9
:100D2000890511501111F1CF60960FB6F894DEBF0E
:100D30000FBECDBFDF91CF911F91FF90EF90DF905D
:100D4000CF90089581E00E9425050895813029F40F
:100D500080E8860F0E9425050895823021F480ECFA
:100D6000860F0E94250508950E94890508950F9316
:100D70001F93CF938C01862F90E00896880F880FE1
:100D8000880F0E942505C0E007C0F801EC0FF11D97
:100D900080810E948905CF5FC830B8F3CF911F9141
:100DA0000F9108950E9479000E94B003FDCF982F03
:100DB0009695969596958770953008F0F8C06130B5
:100DC00031F008F4A4C0623009F451C0EFC0913092
:100DD000C1F028F0923039F19330B9F1E7C04AB34D
:100DE00021E030E0B90102C0660F771F8A95E2F773
:100DF000CB018095942F98239ABB9BB389238BBBFF
:100E0000D5C047B321E030E0B90102C0660F771FBB
:100E10008A95E2F7CB018095942F982397BB98B3DE
:100E2000892388BBC3C044B321E030E0B90102C0CC
:100E3000660F771F8A95E2F7CB018095942F982350
:100E400094BB95B3892385BBB1C041B321E030E0A9
:100E5000B90102C0660F771F8A95E2F7CB01809532
:100E6000942F982391BB92B3892382BB9FC091306A
:100E7000C1F028F0923039F19330B9F197C04AB3FC
:100E800021E030E0B90102C0660F771F8A95E2F7D2
:100E9000CB01962F909594239ABB9BB3892B8BBB48
:100EA00085C047B321E030E0B90102C0660F771F6B
:100EB0008A95E2F7CB01962F9095942397BB98B330
:100EC000892B88BB73C044B321E030E0B90102C074
:100ED000660F771F8A95E2F7CB01962F90959423A2
:100EE00094BB95B3892B85BB61C041B321E030E051
:100EF000B90102C0660F771F8A95E2F7CB01962FE2
:100F00009095942391BB92B3892B82BB4FC09130B3
:100F1000C1F028F0923039F19330B9F147C04BB3AA
:100F200021E030E0B90102C0660F771F8A95E2F731
:100F3000CB01962F909594239BBB9AB3892B8ABBA8
:100F400035C048B321E030E0B90102C0660F771F19
:100F50008A95E2F7CB01962F9095942398BB97B38F
:100F6000892B87BB23C045B321E030E0B90102C023
:100F7000660F771F8A95E2F7CB01962F9095942301
:100F800095BB94B3892B84BB11C042B321E030E000
:100F9000B90102C0660F771F8A95E2F7CB01962F41
:100FA0009095942392BB91B3892B81BB089582E0E5
:100FB0000895982F9695969596958770953008F098
:100FC0008DC0633008F08CC0613009F040C09130B2
:100FD000A1F028F09230F9F0933059F183C04BB36F
:100FE00021E030E0B90102C0660F771F8A95E2F771
:100FF000CB01842B8BBB80E0089548B321E030E027
:10100000B90102C0660F771F8A95E2F7CB01842BE6
:1010100088BB80E0089545B321E030E0B90102C00B
:10102000660F771F8A95E2F7CB01842B85BB80E0A2
:10103000089542B321E030E0B90102C0660F771F86
:101040008A95E2F7CB01842B82BB80E00895611181
:1010500044C09130A9F028F0923009F1933071F139
:1010600043C04BB321E030E0B90102C0660F771FE7
:101070008A95E2F7CB01809584238BBB80E00895AD
:1010800048B321E030E0B90102C0660F771F8A95AE
:10109000E2F7CB018095842388BB80E0089545B3B7
:1010A00021E030E0B90102C0660F771F8A95E2F7B0
:1010B000CB018095842385BB80E0089542B321E075
:1010C00030E0B90102C0660F771F8A95E2F7CB01C5
:1010D0008095842382BB80E00895089582E008957E
:1010E00083E0089580E0089580E00895982F969514
:1010F000969596958770953008F040C09130A1F094
:1011000028F09230F9F0933059F13AC029B330E029
:10111000A90102C0559547958A95E2F7CA018170E9
:10112000FB01808380E0089526B330E0A90102C06E
:10113000559547958A95E2F7CA018170FB01808336
:1011400080E0089523B330E0A90102C0559547958A
:101150008A95E2F7CA018170FB01808380E00895DF
:1011600020B330E0A90102C0559547958A95E2F772
:10117000CA018170FB01808380E0089582E00895B8
:1011800080E00895813041F018F0823049F00895F0
:101190008BB780648BBF08958BB780688BBF089531
:1011A0008BB780628BBF0895813041F018F0823098
:1011B00049F008958BB78F7B8BBF08958BB78F77DE
:1011C0008BBF08958BB78F7D8BBF0895813049F118
:1011D00020F0823009F449C00895613069F028F0A8
:1011E000623089F06330B1F0089585B78E7F85BF96
:1011F00085B78D7F85BF089585B7816085BF85B729
:101200008D7F85BF089585B78E7F85BF85B7826046
:1012100085BF089585B7816085BF85B7826085BF2A
:101220000895613069F028F0623089F06330B1F0E0
:10123000089585B78B7F85BF85B7877F85BF089564
:1012400085B7846085BF85B7877F85BF089585B7DB
:101250008B7F85BF85B7886085BF089585B784601B
:1012600085BF85B7886085BF0895623019F0633007
:1012700029F0089584B78F7B84BF089584B7806474
:1012800084BF0895813049F018F0823059F00895F4
:101290007093650360936403089570936303609390
:1012A00062030895709361036093600308951F9231
:1012B0000F920FB60F9211242F933F934F935F938A
:1012C0006F937F938F939F93AF93BF93EF93FF930E
:1012D000E0916403F0916503309709F00995FF915F
:1012E000EF91BF91AF919F918F917F916F915F919E
:1012F0004F913F912F910F900FBE0F901F90189517
:101300001F920F920FB60F9211242F933F934F937A
:101310005F936F937F938F939F93AF93BF93EF935D
:10132000FF93E0916203F0916303309709F0099510
:10133000FF91EF91BF91AF919F918F917F916F91AD
:101340005F914F913F912F910F900FBE0F901F9083
:1013500018951F920F920FB60F9211242F933F935F
:101360004F935F936F937F938F939F93AF93BF93AD
:10137000EF93FF93E0916003F0916103309709F0E0
:101380000995FF91EF91BF91AF919F918F917F91BF
:101390006F915F914F913F912F910F900FBE0F90E2
:1013A0001F901895CF93C82F62E08DE00E94D7065A
:1013B00062E08FE00E94D70662E08CE00E94D706D0
:1013C00060E08EE00E94D70661E08CE00E94D907C1
:1013D0008DB180648DB98C2F90E08730910508F035
:1013E0004AC0FC01E65DFF4F0C94FE0E8DB18E7F6E
:1013F0008DB98DB18D7F8DB98EB181608EB93BC0B5
:101400008DB18E7F8DB98DB18D7F8DB98EB18E7F6F
:101410008EB931C08DB181608DB98DB18D7F8DB99F
:101420008EB181608EB927C08DB181608DB98DB1CB
:101430008D7F8DB98EB18E7F8EB91DC08DB18E7F9F
:101440008DB98DB182608DB98EB181608EB913C0B6
:101450008DB18E7F8DB98DB182608DB98EB18E7F49
:101460008EB909C08DB181608DB98DB182608DB9A1
:101470008EB18E7F8EB9CF910895FC019EB1892FD8
:10148000881F8827881F19F08FB1808381E0089515
:101490008130F1F028F0823099F0833049F020C09B
:1014A00083B78F7B83BF83B7877F83BF84E0089533
:1014B00083B7806483BF83B7877F83BF84E0089549
:1014C00083B78F7B83BF83B7886083BF84E0089531
:1014D00083B7806483BF83B7886083BF84E0089547
:1014E00081E00895823009F128F4882341F08130A9
:1014F00089F03CC0853021F1863069F137C083B76F
:10150000816083BF83B78D7F83BF83B78B7F83BFAA
:1015100084E0089583B7826083BF83B78E7F83BFE3
:1015200083B78B7F83BF84E0089583B7816083BFD7
:1015300083B7826083BF83B78B7F83BF84E00895C6
:1015400083B7846083BF83B78D7F83BF83B78E7F6C
:1015500083BF84E0089583B7816083BF83B78D7FA5
:1015600083BF83B7846083BF84E0089580E00895DB
:10157000CF92DF92EF92FF926B017C0120E030E08E
:1015800040E853E40E94D10C882394F420E030E03A
:10159000A901C701B6010E946A0E88235CF0C70149
:1015A000B6010E94BA0C0E94480D62BF84E003C0DD
:1015B00083E001C083E0FF90EF90DF90CF9008952B
:1015C0008F929F92AF92BF92CF92DF92EF92FF9253
:1015D0004B015C0120E030E0A9010E946A0E181660
:1015E00094F01EC008B600FEFDCF88B7816088BFAA
:1015F00020E030E040E85FE3C701B6010E944E0CF6
:101600006B017C0103C0C12CD12C7601A501940192
:10161000C701B6010E94D10C882324F384E02AC0BC
:1016200020E030E0A901C501B4010E94D10C1816D8
:101630009CF482E01FC008B600FEFDCF88B7816031
:1016400088BF20E030E040E85FE3C701B6010E94B8
:101650004E0C6B017C0103C0C12CD12C760120E023
:1016600030E040E85FE3C701B6010E94D10C882357
:1016700014F384E0FF90EF90DF90CF90BF90AF9095
:101680009F908F90089520E030E04AE754E40E9454
:10169000D60C2DEB37E346E859E30E94D60C0E94A6
:1016A000BA0C60936A0370936B0380936C039093FE
:1016B0006D0380E00E94480A60E070E0CB010E9468
:1016C000B80A80E00E94720A60916A0370916B030D
:1016D00080916C0390916D030E94E00A089581301F
:1016E000F1F028F0823099F0833049F020C085B5C0
:1016F0008F7B85BD85B5877F85BD84E0089585B5E1
:10170000806485BD85B5877F85BD84E0089585B5F6
:101710008F7B85BD85B5886085BD84E0089585B5DE
:10172000806485BD85B5886085BD84E0089581E0CD
:10173000089584BD84E0089590E08730910508F015
:1017400052C0FC01EF5CFF4F0C94FE0E85B581602A
:1017500085BD85B58D7F85BD85B58B7F85BD84E0D5
:10176000089585B5826085BD85B58E7F85BD85B5BB
:101770008B7F85BD84E0089585B5816085BD85B585
:10178000826085BD85B58B7F85BD84E0089585B574
:10179000846085BD85B58D7F85BD85B58E7F85BD12
:1017A00084E0089585B5816085BD85B58D7F85BD53
:1017B00085B5846085BD84E0089585B5846085BD68
:1017C00085B58E7F85BD85B5826085BD84E0089531
:1017D00085B5816085BD85B5826085BD85B5846030
:1017E00085BD84E0089580E00895789489B7806489
:1017F00089BF80E00E946F0B80E00E94990B80E01F
:101800000E949C0B08951F920F920FB60F92112405
:101810002F938F939F93AF93BF9380916F038823F0
:1018200031F18091660390916703A0916803B091B4
:10183000690385382EE19207A105B1057CF4019674
:10184000A11DB11D8093660390936703A093680365
:10185000B093690382E080936E0315C085389E4182
:10186000A105B10584F081E080936E030CC0109255
:101870006E03109266031092670310926803109231
:10188000690310926F03BF91AF919F918F912F9138
:101890000F900FBE0F901F9018955058BB27AA2786
:1018A0000E94650C0C94180E0E940A0E38F00E94DB
:1018B000110E20F039F49F3F19F426F40C94070E12
:1018C0000EF4E095E7FB0C94D80DE92F0E94290E49
:1018D00058F3BA17620773078407950720F079F465
:1018E000A6F50C94630E0EF4E0950B2EBA2FA02DE6
:1018F0000B01B90190010C01CA01A0011124FF27BD
:10190000591B99F0593F50F4503E68F11A16F040B7
:10191000A22F232F342F4427585FF3CF46953795B6
:101920002795A795F0405395C9F77EF41F16BA0B7B
:10193000620B730B840BBAF09150A1F0FF0FBB1F29
:10194000661F771F881FC2F70EC0BA0F621F731F72
:10195000841F48F4879577956795B795F7959E3FCF
:1019600008F0B0CF9395880F08F09927EE0F979560
:10197000879508950E944B0E90F09F3748F491117F
:1019800016F40C94640E60E070E080E89FE3089524
:1019900026F01B16611D711D811D0C94DE0D0C942B
:1019A000F90D0E94B40D08F481E008950E94EA0C3C
:1019B0000C94180E0E94110E58F00E940A0E40F06E
:1019C00029F45F3F29F00C94D80D51110C94640E4A
:1019D0000C94070E0E94290E68F39923B1F3552346
:1019E00091F3951B550BBB27AA2762177307840732
:1019F00038F09F5F5F4F220F331F441FAA1FA9F3C8
:101A000035D00E2E3AF0E0E832D091505040E695B5
:101A1000001CCAF72BD0FE2F29D0660F771F881F16
:101A2000BB1F261737074807AB07B0E809F0BB0B09
:101A3000802DBF01FF2793585F4F3AF09E3F51051D
:101A400078F00C94D80D0C94640E5F3FE4F3983E4C
:101A5000D4F3869577956795B795F7959F5FC9F706
:101A6000880F911D9695879597F90895E1E0660F87
:101A7000771F881FBB1F621773078407BA0720F000
:101A8000621B730B840BBA0BEE1F88F7E095089569
:101A90000E94310E88F09F5798F0B92F9927B751BF
:101AA000B0F0E1F0660F771F881F991F1AF0BA9502
:101AB000C9F714C0B13091F00E94630EB1E00895EF
:101AC0000C94630E672F782F8827B85F39F0B93FE1
:101AD000CCF3869577956795B395D9F73EF49095B5
:101AE0008095709561957F4F8F4F9F4F0895E89433
:101AF00009C097FB3EF490958095709561957F4F56
:101B00008F4F9F4F9923A9F0F92F96E9BB27939503
:101B1000F695879577956795B795F111F8CFFAF413
:101B2000BB0F11F460FF1BC06F5F7F4F8F4F9F4F44
:101B300016C0882311F096E911C0772321F09EE8A2
:101B4000872F762F05C0662371F096E8862F70E008
:101B500060E02AF09A95660F771F881FDAF7880FE2
:101B60009695879597F90895990F0008550FAA0B38
:101B7000E0E8FEEF16161706E807F907C0F01216A0
:101B80001306E407F50798F0621B730B840B950BA3
:101B900039F40A2661F0232B242B252B21F40895F8
:101BA0000A2609F4A140A6958FEF811D811D089595
:101BB00097F99F6780E870E060E00895882371F4EA
:101BC000772321F09850872B762F07C0662311F4D6
:101BD00099270DC09051862B70E060E02AF09A950D
:101BE000660F771F881FDAF7880F9695879597F904
:101BF00008959F3F31F0915020F487957795679530
:101C0000B795880F911D9695879597F908959FEF41
:101C100080EC089500240A94161617061806090683
:101C2000089500240A941216130614060506089552
:101C3000092E0394000C11F4882352F0BB0F40F4DA
:101C4000BF2B11F460FF04C06F5F7F4F8F4F9F4F1A
:101C5000089557FD9058440F551F59F05F3F71F09C
:101C60004795880F97FB991F61F09F3F79F0879503
:101C70000895121613061406551FF2CF4695F1DF8C
:101C800008C0161617061806991FF1CF869571051C
:101C90006105089408950E94310EA0F0BEE7B917BF
:101CA00088F4BB279F3860F41616B11D672F782F74
:101CB0008827985FF7CF869577956795B11D93959F
:101CC0009639C8F30895E894BB2766277727CB0198
:101CD00097F908950E94B40D08F48FEF08950E94BB
:101CE000820E0C94180E0E940A0E38F00E94110EFB
:101CF00020F0952311F00C94D80D0C94070E1124AC
:101D00000C94640E0E94290E70F3959FC1F3950FF9
:101D100050E0551F629FF001729FBB27F00DB11D6F
:101D2000639FAA27F00DB11DAA1F649F6627B00DFF
:101D3000A11D661F829F2227B00DA11D621F739FE8
:101D4000B00DA11D621F839FA00D611D221F749FF6
:101D50003327A00D611D231F849F600D211D822F3D
:101D6000762F6A2F11249F5750409AF0F1F0882364
:101D70004AF0EE0FFF1FBB1F661F771F881F915091
:101D80005040A9F79E3F510580F00C94D80D0C945B
:101D9000640E5F3FE4F3983ED4F38695779567959C
:101DA000B795F795E7959F5FC1F7FE2B880F911DBB
:101DB0009695879597F90895A1E21A2EAA1BBB1B49
:101DC000FD010DC0AA1FBB1FEE1FFF1FA217B30707
:101DD000E407F50720F0A21BB30BE40BF50B661F1D
:101DE000771F881F991F1A9469F7609570958095E1
:101DF00090959B01AC01BD01CF010895EE0FFF1F2F
:101E00000590F491E02D0994662777270C94080F2C
:101E1000A0E0B0E0EEE0FFE00C948B10EC016B0171
:101E20006115710519F0FB01918380837E01FFEF3D
:101E3000EF1AFF0A0881802F90E00E945610892B2C
:101E400011F0E701F3CF0D3239F47E0182E0E80EA4
:101E5000F11C098111E008C00B3229F47E0192E0E7
:101E6000E90EF11C098110E0E701219743E050E001
:101E700068E770E0CE010E945F10892BC1F42396C1
:101E800045E050E063E770E0CE010E945F10892BCF
:101E900009F42596C114D10419F0F601D183C08349
:101EA0001111F6C060E070E080E89FE7FAC043E0FF
:101EB00050E060E770E0CE010E945F10892B59F47A
:101EC000C114D10409F4E9C0F2E0EF0EF11CF601EF
:101ED000F182E082E2C020E030E0A901C0E0D0E081
:101EE000F70180EDA82EA00E89E08A1530F1912F20
:101EF0009260B92E812F887012FF04C0811124C016
:101F0000219622C081112197A5E0B0E00E947A10AD
:101F1000DC01CB01880F991FAA1FBB1F9C01AD01DB
:101F20002A0D311D411D511D283989E938074807FF
:101F300089E1580748F0166006C09EEFA9120AC052
:101F400013FD40C01860B12E8FEFE81AF80A008127
:101F50001B2DC6CF802F8F7D8534A1F580818D32DA
:101F600011F4106106C08B3221F0319661E070E00F
:101F700004C08181329662E070E080538A3018F0AC
:101F8000E61BF70B1FC060E070E060389CE079074B
:101F90005CF4DB01AA0FBB1FAA0FBB1F6A0F7B1FDC
:101FA000660F771F680F711D3196DF0111978C91B5
:101FB00080538A3050F314FF03C071956195710905
:101FC000C60FD71F11FF08C0C114D10429F0CF01DB
:101FD0000197F60191838083CA01B9010E94770DB0
:101FE000212F2370233019F04B015C0106C04B01F7
:101FF0005C01B7FAB094B7F8B09420E030E0A901E2
:10200000C501B4010E94D10C882309F43EC0D7FF5A
:1020100006C0D195C195D1090FE810E002C007EACA
:1020200010E06801F8E1CF1AD10890E2E92EF12C16
:10203000CE15DF0574F0F801259135914591549145
:10204000C501B4010E946F0E4B015C01CE19DF097E
:10205000EFCF04501109F594E7940C151D0541F7D5
:102060008A2D880F8B2D881F8F3F49F020E030E0AC
:10207000A901C501B4010E94D10C811106C082E200
:1020800090E09093750380937403C501B40109C077
:1020900060E070E080E89FEF04C060E070E080ECFA
:1020A0009FE7CDB7DEB7ECE00C94A71091110C942C
:1020B0007710803219F089508550C8F70895FB01D8
:1020C000DC014150504088F08D9181341CF08B35FB
:1020D0000CF4805E659161341CF06B350CF4605E2D
:1020E000861B611171F3990B0895881BFCCF99270A
:1020F000882708950E94BC10A59F900DB49F900D55
:10210000A49F800D911D112408952F923F924F920C
:102110005F926F927F928F929F92AF92BF92CF9277
:10212000DF92EF92FF920F931F93CF93DF93CDB780
:10213000DEB7CA1BDB0B0FB6F894DEBF0FBECDBFF8
:1021400009942A88398848885F846E847D848C84C9
:102150009B84AA84B984C884DF80EE80FD800C81D2
:102160001B81AA81B981CE0FD11D0FB6F894DEBFB5
:102170000FBECDBFED010895A29FB001B39FC00176
:10218000A39F700D811D1124911DB29F700D811DA3
:0A2190001124911D0895F894FFCF6B
:10219A00040E0E0E1F00040000409C450101700051
:1021AA0000B8884700343738353231343536393259
:1021BA0033363534390000409C45013139373536DC
:1021CA003438373532313336393534000000FA4481
:1021DA0000313233343536373839313233343536E3
:1021EA00370000401C460033333333333333333341
:1021FA00343434343434340000409C4500353535A9
:10220A0035353535353538383838383838000000FE
:10221A0000000000000000000000000000000000B4
:10222A0000000000000000000000000000000000A4
:10223A000000000000000000000000000000000094
:10224A000000000000000000000000000000000084
:10225A000000000000000000000000000000000074
:10226A000000000000000000000000000000000064
:10227A000000000000000000000000000000000054
:10228A000000000000000000000000000000000044
:10229A000000000000000000000000000000000034
:1022AA000000000000000000000000000000000024
:1022BA000000000000000000000000000000000014
:1022CA000000000000000000000000000000000004
:1022DA0000000000000000000000000000000000F4
:1022EA0000000000000000000000000000000000E4
:1022FA0000000000000000000000000000000000D4
:10230A0000000000000000000000000000000000C3
:10231A0000000000000000000000000000000000B3
:10232A0000000000000000000000000000000000A3
:10233A000000000000000000000000000000000093
:10234A000000000000000000000000000000000083
:10235A0000000000000000002057454C434F4D4547
:10236A0020544F2041544D2000494E534552542089
:10237A00594F55522043415244004C4F4144494E13
:10238A0047202E2E2E00456E74657220596F757285
:10239A002050494E002A0054525920414741494E83
:1023AA002000545249414C53203A0020424C4F439A
:1023BA004B45442000456E74657220416D6F756E01
:1023CA007400303030302E303000494E5355464676
:1023DA00494349454E5420002046554E4420212168
:1023EA00004D4158204C494D49540020495320453D
:1023FA0058434545444544200054484953204953CD
:10240A0000412053544F4C454E2043415244202111
:10241A002100412046524155442043415244202143
:10242A002100415050524F56454420005452414ECB
:10243A0053414354494F4E200052454D41494E495C
:10244A004E470042414C414E4345203A00454A45D9
:0E245A004354494E47200043415244200000A5
:00000001FF
